{
  "contractName": "AddEvidence",
  "abi": [
    {
      "anonymous": false,
      "inputs": [
        {
          "indexed": false,
          "internalType": "string",
          "name": "evidenceId",
          "type": "string"
        }
      ],
      "name": "EvidenceAdded",
      "type": "event"
    },
    {
      "inputs": [
        {
          "internalType": "string",
          "name": "",
          "type": "string"
        }
      ],
      "name": "evidences",
      "outputs": [
        {
          "internalType": "string",
          "name": "evidenceId",
          "type": "string"
        },
        {
          "internalType": "string",
          "name": "caseId",
          "type": "string"
        },
        {
          "internalType": "string",
          "name": "evidenceName",
          "type": "string"
        },
        {
          "internalType": "string",
          "name": "seizureLocation",
          "type": "string"
        },
        {
          "internalType": "string",
          "name": "collectorName",
          "type": "string"
        },
        {
          "internalType": "string",
          "name": "collectorWallet",
          "type": "string"
        },
        {
          "internalType": "string",
          "name": "investigatingOfficerName",
          "type": "string"
        },
        {
          "internalType": "string",
          "name": "investigatingOfficerWallet",
          "type": "string"
        },
        {
          "internalType": "string",
          "name": "description",
          "type": "string"
        },
        {
          "internalType": "string",
          "name": "evidenceType",
          "type": "string"
        },
        {
          "internalType": "string",
          "name": "condition",
          "type": "string"
        }
      ],
      "stateMutability": "view",
      "type": "function",
      "constant": true
    },
    {
      "inputs": [
        {
          "internalType": "string",
          "name": "evidenceId",
          "type": "string"
        },
        {
          "internalType": "string",
          "name": "caseId",
          "type": "string"
        },
        {
          "internalType": "string",
          "name": "evidenceName",
          "type": "string"
        },
        {
          "internalType": "string",
          "name": "seizureLocation",
          "type": "string"
        },
        {
          "internalType": "string",
          "name": "collectorName",
          "type": "string"
        },
        {
          "internalType": "string",
          "name": "collectorWallet",
          "type": "string"
        },
        {
          "internalType": "string",
          "name": "investigatingOfficerName",
          "type": "string"
        },
        {
          "internalType": "string",
          "name": "investigatingOfficerWallet",
          "type": "string"
        },
        {
          "internalType": "string",
          "name": "description",
          "type": "string"
        },
        {
          "internalType": "string",
          "name": "evidenceType",
          "type": "string"
        },
        {
          "internalType": "string",
          "name": "condition",
          "type": "string"
        }
      ],
      "name": "addEvidence",
      "outputs": [],
      "stateMutability": "nonpayable",
      "type": "function"
    }
  ],
  "bytecode": "0x608060405234801561001057600080fd5b50610f4c806100206000396000f3fe608060405234801561001057600080fd5b50600436106100365760003560e01c80634dd630301461003b578063c206745314610075575b600080fd5b610055600480360381019061005091906109d7565b610091565b60405161006c9b9a99989796959493929190610cb3565b60405180910390f35b61008f600480360381019061008a9190610a18565b6106d9565b005b6000818051602081018201805184825260208301602085012081835280955050505050506000915090508060000180546100ca90610e75565b80601f01602080910402602001604051908101604052809291908181526020018280546100f690610e75565b80156101435780601f1061011857610100808354040283529160200191610143565b820191906000526020600020905b81548152906001019060200180831161012657829003601f168201915b50505050509080600101805461015890610e75565b80601f016020809104026020016040519081016040528092919081815260200182805461018490610e75565b80156101d15780601f106101a6576101008083540402835291602001916101d1565b820191906000526020600020905b8154815290600101906020018083116101b457829003601f168201915b5050505050908060020180546101e690610e75565b80601f016020809104026020016040519081016040528092919081815260200182805461021290610e75565b801561025f5780601f106102345761010080835404028352916020019161025f565b820191906000526020600020905b81548152906001019060200180831161024257829003601f168201915b50505050509080600301805461027490610e75565b80601f01602080910402602001604051908101604052809291908181526020018280546102a090610e75565b80156102ed5780601f106102c2576101008083540402835291602001916102ed565b820191906000526020600020905b8154815290600101906020018083116102d057829003601f168201915b50505050509080600401805461030290610e75565b80601f016020809104026020016040519081016040528092919081815260200182805461032e90610e75565b801561037b5780601f106103505761010080835404028352916020019161037b565b820191906000526020600020905b81548152906001019060200180831161035e57829003601f168201915b50505050509080600501805461039090610e75565b80601f01602080910402602001604051908101604052809291908181526020018280546103bc90610e75565b80156104095780601f106103de57610100808354040283529160200191610409565b820191906000526020600020905b8154815290600101906020018083116103ec57829003601f168201915b50505050509080600601805461041e90610e75565b80601f016020809104026020016040519081016040528092919081815260200182805461044a90610e75565b80156104975780601f1061046c57610100808354040283529160200191610497565b820191906000526020600020905b81548152906001019060200180831161047a57829003601f168201915b5050505050908060070180546104ac90610e75565b80601f01602080910402602001604051908101604052809291908181526020018280546104d890610e75565b80156105255780601f106104fa57610100808354040283529160200191610525565b820191906000526020600020905b81548152906001019060200180831161050857829003601f168201915b50505050509080600801805461053a90610e75565b80601f016020809104026020016040519081016040528092919081815260200182805461056690610e75565b80156105b35780601f10610588576101008083540402835291602001916105b3565b820191906000526020600020905b81548152906001019060200180831161059657829003601f168201915b5050505050908060090180546105c890610e75565b80601f01602080910402602001604051908101604052809291908181526020018280546105f490610e75565b80156106415780601f1061061657610100808354040283529160200191610641565b820191906000526020600020905b81548152906001019060200180831161062457829003601f168201915b50505050509080600a01805461065690610e75565b80601f016020809104026020016040519081016040528092919081815260200182805461068290610e75565b80156106cf5780601f106106a4576101008083540402835291602001916106cf565b820191906000526020600020905b8154815290600101906020018083116106b257829003601f168201915b505050505090508b565b6040518061016001604052808c81526020018b81526020018a81526020018981526020018881526020018781526020018681526020018581526020018481526020018381526020018281525060008c6040516107359190610c7a565b9081526020016040518091039020600082015181600001908051906020019061075f9291906108cc565b50602082015181600101908051906020019061077c9291906108cc565b5060408201518160020190805190602001906107999291906108cc565b5060608201518160030190805190602001906107b69291906108cc565b5060808201518160040190805190602001906107d39291906108cc565b5060a08201518160050190805190602001906107f09291906108cc565b5060c082015181600601908051906020019061080d9291906108cc565b5060e082015181600701908051906020019061082a9291906108cc565b506101008201518160080190805190602001906108489291906108cc565b506101208201518160090190805190602001906108669291906108cc565b5061014082015181600a0190805190602001906108849291906108cc565b509050507f13c6f62e3774da9e3f990a001e27738218cafe34ed88f693b9115186dfcecbdc8b6040516108b79190610c91565b60405180910390a15050505050505050505050565b8280546108d890610e75565b90600052602060002090601f0160209004810192826108fa5760008555610941565b82601f1061091357805160ff1916838001178555610941565b82800160010185558215610941579182015b82811115610940578251825591602001919060010190610925565b5b50905061094e9190610952565b5090565b5b8082111561096b576000816000905550600101610953565b5090565b600061098261097d84610ddc565b610dab565b90508281526020810184848401111561099a57600080fd5b6109a5848285610e33565b509392505050565b600082601f8301126109be57600080fd5b81356109ce84826020860161096f565b91505092915050565b6000602082840312156109e957600080fd5b600082013567ffffffffffffffff811115610a0357600080fd5b610a0f848285016109ad565b91505092915050565b60008060008060008060008060008060006101608c8e031215610a3a57600080fd5b60008c013567ffffffffffffffff811115610a5457600080fd5b610a608e828f016109ad565b9b505060208c013567ffffffffffffffff811115610a7d57600080fd5b610a898e828f016109ad565b9a505060408c013567ffffffffffffffff811115610aa657600080fd5b610ab28e828f016109ad565b99505060608c013567ffffffffffffffff811115610acf57600080fd5b610adb8e828f016109ad565b98505060808c013567ffffffffffffffff811115610af857600080fd5b610b048e828f016109ad565b97505060a08c013567ffffffffffffffff811115610b2157600080fd5b610b2d8e828f016109ad565b96505060c08c013567ffffffffffffffff811115610b4a57600080fd5b610b568e828f016109ad565b95505060e08c013567ffffffffffffffff811115610b7357600080fd5b610b7f8e828f016109ad565b9450506101008c013567ffffffffffffffff811115610b9d57600080fd5b610ba98e828f016109ad565b9350506101208c013567ffffffffffffffff811115610bc757600080fd5b610bd38e828f016109ad565b9250506101408c013567ffffffffffffffff811115610bf157600080fd5b610bfd8e828f016109ad565b9150509295989b509295989b9093969950565b6000610c1b82610e0c565b610c258185610e17565b9350610c35818560208601610e42565b610c3e81610f05565b840191505092915050565b6000610c5482610e0c565b610c5e8185610e28565b9350610c6e818560208601610e42565b80840191505092915050565b6000610c868284610c49565b915081905092915050565b60006020820190508181036000830152610cab8184610c10565b905092915050565b6000610160820190508181036000830152610cce818e610c10565b90508181036020830152610ce2818d610c10565b90508181036040830152610cf6818c610c10565b90508181036060830152610d0a818b610c10565b90508181036080830152610d1e818a610c10565b905081810360a0830152610d328189610c10565b905081810360c0830152610d468188610c10565b905081810360e0830152610d5a8187610c10565b9050818103610100830152610d6f8186610c10565b9050818103610120830152610d848185610c10565b9050818103610140830152610d998184610c10565b90509c9b505050505050505050505050565b6000604051905081810181811067ffffffffffffffff82111715610dd257610dd1610ed6565b5b8060405250919050565b600067ffffffffffffffff821115610df757610df6610ed6565b5b601f19601f8301169050602081019050919050565b600081519050919050565b600082825260208201905092915050565b600081905092915050565b82818337600083830152505050565b60005b83811015610e60578082015181840152602081019050610e45565b83811115610e6f576000848401525b50505050565b60006002820490506001821680610e8d57607f821691505b60208210811415610ea157610ea0610ea7565b5b50919050565b7f4e487b7100000000000000000000000000000000000000000000000000000000600052602260045260246000fd5b7f4e487b7100000000000000000000000000000000000000000000000000000000600052604160045260246000fd5b6000601f19601f830116905091905056fea264697066735822122096876a608d3f3df7bd2f29b4f11ace726f69059855a7e6fc7bd698fa0ba8417c64736f6c63430008000033",
  "immutableReferences": {},
  "source": "// SPDX-License-Identifier: MIT\r\npragma solidity ^0.8.0;\r\n\r\ncontract AddEvidence {\r\n    struct Evidence {\r\n        string evidenceId;\r\n        string caseId;\r\n        string evidenceName;\r\n        string seizureLocation;\r\n        string collectorName;\r\n        string collectorWallet;\r\n        string investigatingOfficerName;\r\n        string investigatingOfficerWallet;\r\n        string description;\r\n        string evidenceType;\r\n        string condition;\r\n    }\r\n\r\n    mapping(string => Evidence) public evidences;\r\n\r\n    event EvidenceAdded(string evidenceId);\r\n\r\n    function addEvidence(\r\n        string memory evidenceId,\r\n        string memory caseId,\r\n        string memory evidenceName,\r\n        string memory seizureLocation,\r\n        string memory collectorName,\r\n        string memory collectorWallet,\r\n        string memory investigatingOfficerName,\r\n        string memory investigatingOfficerWallet,\r\n        string memory description,\r\n        string memory evidenceType,\r\n        string memory condition\r\n    ) public {\r\n        evidences[evidenceId] = Evidence(\r\n            evidenceId,\r\n            caseId,\r\n            evidenceName,\r\n            seizureLocation,\r\n            collectorName,\r\n            collectorWallet,\r\n            investigatingOfficerName,\r\n            investigatingOfficerWallet,\r\n            description,\r\n            evidenceType,\r\n            condition\r\n        );\r\n        emit EvidenceAdded(evidenceId);\r\n    }\r\n}",
  "sourcePath": "C:\\Users\\isfcr\\Desktop\\NyayaSetu (blockchain)\\NyayaSetu\\blockchain\\contracts\\AddEvidence.sol",
  "compiler": {
    "name": "solc",
    "version": "0.8.0+commit.c7dfd78e.Emscripten.clang"
  },
  "schemaVersion": "3.4.16",
  "updatedAt": "2025-08-14T04:39:48.862Z",
  "networkType": "ethereum",
  "devdoc": {
    "kind": "dev",
    "methods": {},
    "version": 1
  },
  "userdoc": {
    "kind": "user",
    "methods": {},
    "version": 1
  }
}