{
  "contractName": "Analysis",
  "abi": [
    {
      "anonymous": false,
      "inputs": [
        {
          "indexed": false,
          "internalType": "string",
          "name": "fileName",
          "type": "string"
        },
        {
          "indexed": false,
          "internalType": "string",
          "name": "analysisType",
          "type": "string"
        }
      ],
      "name": "AnalysisRecordAdded",
      "type": "event"
    },
    {
      "inputs": [
        {
          "internalType": "string",
          "name": "",
          "type": "string"
        }
      ],
      "name": "analysisRecords",
      "outputs": [
        {
          "internalType": "string",
          "name": "fileName",
          "type": "string"
        },
        {
          "internalType": "string",
          "name": "analysisType",
          "type": "string"
        },
        {
          "internalType": "uint256",
          "name": "timestamp",
          "type": "uint256"
        }
      ],
      "stateMutability": "view",
      "type": "function",
      "constant": true
    },
    {
      "inputs": [
        {
          "internalType": "string",
          "name": "fileName",
          "type": "string"
        },
        {
          "internalType": "string",
          "name": "analysisType",
          "type": "string"
        }
      ],
      "name": "addAnalysisRecord",
      "outputs": [],
      "stateMutability": "nonpayable",
      "type": "function"
    },
    {
      "inputs": [
        {
          "internalType": "string",
          "name": "fileName",
          "type": "string"
        }
      ],
      "name": "getAnalysisRecord",
      "outputs": [
        {
          "components": [
            {
              "internalType": "string",
              "name": "fileName",
              "type": "string"
            },
            {
              "internalType": "string",
              "name": "analysisType",
              "type": "string"
            },
            {
              "internalType": "uint256",
              "name": "timestamp",
              "type": "uint256"
            }
          ],
          "internalType": "struct Analysis.AnalysisRecord",
          "name": "",
          "type": "tuple"
        }
      ],
      "stateMutability": "view",
      "type": "function",
      "constant": true
    }
  ],
  "bytecode": "0x608060405234801561001057600080fd5b50610999806100206000396000f3fe608060405234801561001057600080fd5b50600436106100415760003560e01c80630a2093c11461004657806326d3525914610062578063ae2d00ba14610094575b600080fd5b610060600480360381019061005b91906105a4565b6100c4565b005b61007c60048036038101906100779190610563565b610181565b60405161008b93929190610776565b60405180910390f35b6100ae60048036038101906100a99190610563565b6102d1565b6040516100bb91906107bb565b60405180910390f35b6040518060600160405280838152602001828152602001428152506000836040516100ef9190610728565b90815260200160405180910390206000820151816000019080519060200190610119929190610437565b506020820151816001019080519060200190610136929190610437565b50604082015181600201559050507f2428549d1b30c8b37a019243b996c51da2d1c8646f0886a066824715aedf4496828260405161017592919061073f565b60405180910390a15050565b6000818051602081018201805184825260208301602085012081835280955050505050506000915090508060000180546101ba906108c2565b80601f01602080910402602001604051908101604052809291908181526020018280546101e6906108c2565b80156102335780601f1061020857610100808354040283529160200191610233565b820191906000526020600020905b81548152906001019060200180831161021657829003601f168201915b505050505090806001018054610248906108c2565b80601f0160208091040260200160405190810160405280929190818152602001828054610274906108c2565b80156102c15780601f10610296576101008083540402835291602001916102c1565b820191906000526020600020905b8154815290600101906020018083116102a457829003601f168201915b5050505050908060020154905083565b6102d96104bd565b6000826040516102e99190610728565b9081526020016040518091039020604051806060016040529081600082018054610312906108c2565b80601f016020809104026020016040519081016040528092919081815260200182805461033e906108c2565b801561038b5780601f106103605761010080835404028352916020019161038b565b820191906000526020600020905b81548152906001019060200180831161036e57829003601f168201915b505050505081526020016001820180546103a4906108c2565b80601f01602080910402602001604051908101604052809291908181526020018280546103d0906108c2565b801561041d5780601f106103f25761010080835404028352916020019161041d565b820191906000526020600020905b81548152906001019060200180831161040057829003601f168201915b505050505081526020016002820154815250509050919050565b828054610443906108c2565b90600052602060002090601f01602090048101928261046557600085556104ac565b82601f1061047e57805160ff19168380011785556104ac565b828001600101855582156104ac579182015b828111156104ab578251825591602001919060010190610490565b5b5090506104b991906104de565b5090565b60405180606001604052806060815260200160608152602001600081525090565b5b808211156104f75760008160009055506001016104df565b5090565b600061050e6105098461080e565b6107dd565b90508281526020810184848401111561052657600080fd5b610531848285610880565b509392505050565b600082601f83011261054a57600080fd5b813561055a8482602086016104fb565b91505092915050565b60006020828403121561057557600080fd5b600082013567ffffffffffffffff81111561058f57600080fd5b61059b84828501610539565b91505092915050565b600080604083850312156105b757600080fd5b600083013567ffffffffffffffff8111156105d157600080fd5b6105dd85828601610539565b925050602083013567ffffffffffffffff8111156105fa57600080fd5b61060685828601610539565b9150509250929050565b600061061b8261083e565b6106258185610849565b935061063581856020860161088f565b61063e81610952565b840191505092915050565b60006106548261083e565b61065e818561085a565b935061066e81856020860161088f565b61067781610952565b840191505092915050565b600061068d8261083e565b610697818561086b565b93506106a781856020860161088f565b80840191505092915050565b600060608301600083015184820360008601526106d08282610610565b915050602083015184820360208601526106ea8282610610565b91505060408301516106ff604086018261070a565b508091505092915050565b61071381610876565b82525050565b61072281610876565b82525050565b60006107348284610682565b915081905092915050565b600060408201905081810360008301526107598185610649565b9050818103602083015261076d8184610649565b90509392505050565b600060608201905081810360008301526107908186610649565b905081810360208301526107a48185610649565b90506107b36040830184610719565b949350505050565b600060208201905081810360008301526107d581846106b3565b905092915050565b6000604051905081810181811067ffffffffffffffff8211171561080457610803610923565b5b8060405250919050565b600067ffffffffffffffff82111561082957610828610923565b5b601f19601f8301169050602081019050919050565b600081519050919050565b600082825260208201905092915050565b600082825260208201905092915050565b600081905092915050565b6000819050919050565b82818337600083830152505050565b60005b838110156108ad578082015181840152602081019050610892565b838111156108bc576000848401525b50505050565b600060028204905060018216806108da57607f821691505b602082108114156108ee576108ed6108f4565b5b50919050565b7f4e487b7100000000000000000000000000000000000000000000000000000000600052602260045260246000fd5b7f4e487b7100000000000000000000000000000000000000000000000000000000600052604160045260246000fd5b6000601f19601f830116905091905056fea264697066735822122072314084e9bd16b10ee1e9a6ef89fdd03255cddd5cf185af790c083a5397a47e64736f6c63430008000033",
  "immutableReferences": {},
  "source": "// SPDX-License-Identifier: MIT\r\npragma solidity ^0.8.0;\r\n\r\ncontract Analysis {\r\n    struct AnalysisRecord {\r\n        string fileName;\r\n        string analysisType;\r\n        uint256 timestamp;\r\n    }\r\n\r\n    mapping(string => AnalysisRecord) public analysisRecords; // key: fileName\r\n\r\n    event AnalysisRecordAdded(string fileName, string analysisType);\r\n\r\n    function addAnalysisRecord(\r\n        string memory fileName,\r\n        string memory analysisType\r\n    ) public {\r\n        analysisRecords[fileName] = AnalysisRecord(\r\n            fileName,\r\n            analysisType,\r\n            block.timestamp\r\n        );\r\n        emit AnalysisRecordAdded(fileName, analysisType);\r\n    }\r\n\r\n    function getAnalysisRecord(string memory fileName) public view returns (AnalysisRecord memory) {\r\n        return analysisRecords[fileName];\r\n    }\r\n}",
  "sourcePath": "C:\\Users\\isfcr\\Desktop\\NyayaSetu (blockchain)\\NyayaSetu\\blockchain\\contracts\\Analysis.sol",
  "compiler": {
    "name": "solc",
    "version": "0.8.0+commit.c7dfd78e.Emscripten.clang"
  },
  "schemaVersion": "3.4.16",
  "updatedAt": "2025-08-14T04:39:49.114Z",
  "networkType": "ethereum",
  "devdoc": {
    "kind": "dev",
    "methods": {},
    "version": 1
  },
  "userdoc": {
    "kind": "user",
    "methods": {},
    "version": 1
  }
}