{
  "contractName": "Imaging",
  "abi": [
    {
      "anonymous": false,
      "inputs": [
        {
          "indexed": false,
          "internalType": "string",
          "name": "fileName",
          "type": "string"
        },
        {
          "indexed": false,
          "internalType": "string",
          "name": "sha256Hash",
          "type": "string"
        }
      ],
      "name": "ImagingEvidenceAdded",
      "type": "event"
    },
    {
      "inputs": [
        {
          "internalType": "string",
          "name": "",
          "type": "string"
        }
      ],
      "name": "imagingEvidences",
      "outputs": [
        {
          "internalType": "string",
          "name": "fileName",
          "type": "string"
        },
        {
          "internalType": "string",
          "name": "sha256Hash",
          "type": "string"
        },
        {
          "internalType": "bool",
          "name": "imagingDone",
          "type": "bool"
        },
        {
          "internalType": "bool",
          "name": "downloaded",
          "type": "bool"
        },
        {
          "internalType": "uint256",
          "name": "timestamp",
          "type": "uint256"
        }
      ],
      "stateMutability": "view",
      "type": "function",
      "constant": true
    },
    {
      "inputs": [
        {
          "internalType": "string",
          "name": "fileName",
          "type": "string"
        },
        {
          "internalType": "string",
          "name": "sha256Hash",
          "type": "string"
        },
        {
          "internalType": "bool",
          "name": "imagingDone",
          "type": "bool"
        },
        {
          "internalType": "bool",
          "name": "downloaded",
          "type": "bool"
        }
      ],
      "name": "addImagingEvidence",
      "outputs": [],
      "stateMutability": "nonpayable",
      "type": "function"
    },
    {
      "inputs": [
        {
          "internalType": "string",
          "name": "sha256Hash",
          "type": "string"
        }
      ],
      "name": "getImagingEvidence",
      "outputs": [
        {
          "components": [
            {
              "internalType": "string",
              "name": "fileName",
              "type": "string"
            },
            {
              "internalType": "string",
              "name": "sha256Hash",
              "type": "string"
            },
            {
              "internalType": "bool",
              "name": "imagingDone",
              "type": "bool"
            },
            {
              "internalType": "bool",
              "name": "downloaded",
              "type": "bool"
            },
            {
              "internalType": "uint256",
              "name": "timestamp",
              "type": "uint256"
            }
          ],
          "internalType": "struct Imaging.ImagingEvidence",
          "name": "",
          "type": "tuple"
        }
      ],
      "stateMutability": "view",
      "type": "function",
      "constant": true
    }
  ],
  "bytecode": "0x608060405234801561001057600080fd5b50610b19806100206000396000f3fe608060405234801561001057600080fd5b50600436106100405760003560e01c80628b341f1461004557806317bf964b14610079578063a399d0e0146100a9575b600080fd5b61005f600480360381019061005a9190610639565b6100c5565b6040516100709594939291906108b7565b60405180910390f35b610093600480360381019061008e9190610639565b61023b565b6040516100a09190610918565b60405180910390f35b6100c360048036038101906100be919061067a565b6103d7565b005b6000818051602081018201805184825260208301602085012081835280955050505050506000915090508060000180546100fe90610a2b565b80601f016020809104026020016040519081016040528092919081815260200182805461012a90610a2b565b80156101775780601f1061014c57610100808354040283529160200191610177565b820191906000526020600020905b81548152906001019060200180831161015a57829003601f168201915b50505050509080600101805461018c90610a2b565b80601f01602080910402602001604051908101604052809291908181526020018280546101b890610a2b565b80156102055780601f106101da57610100808354040283529160200191610205565b820191906000526020600020905b8154815290600101906020018083116101e857829003601f168201915b5050505050908060020160009054906101000a900460ff16908060020160019054906101000a900460ff16908060030154905085565b6102436104e6565b6000826040516102539190610869565b90815260200160405180910390206040518060a001604052908160008201805461027c90610a2b565b80601f01602080910402602001604051908101604052809291908181526020018280546102a890610a2b565b80156102f55780601f106102ca576101008083540402835291602001916102f5565b820191906000526020600020905b8154815290600101906020018083116102d857829003601f168201915b5050505050815260200160018201805461030e90610a2b565b80601f016020809104026020016040519081016040528092919081815260200182805461033a90610a2b565b80156103875780601f1061035c57610100808354040283529160200191610387565b820191906000526020600020905b81548152906001019060200180831161036a57829003601f168201915b505050505081526020016002820160009054906101000a900460ff161515151581526020016002820160019054906101000a900460ff161515151581526020016003820154815250509050919050565b6040518060a0016040528085815260200184815260200183151581526020018215158152602001428152506000846040516104129190610869565b9081526020016040518091039020600082015181600001908051906020019061043c929190610519565b506020820151816001019080519060200190610459929190610519565b5060408201518160020160006101000a81548160ff02191690831515021790555060608201518160020160016101000a81548160ff021916908315150217905550608082015181600301559050507ff8446942fcb236cfd43ce277d4c3030f3d91e90f524cc66df735c1f32126ee0d84846040516104d8929190610880565b60405180910390a150505050565b6040518060a001604052806060815260200160608152602001600015158152602001600015158152602001600081525090565b82805461052590610a2b565b90600052602060002090601f016020900481019282610547576000855561058e565b82601f1061056057805160ff191683800117855561058e565b8280016001018555821561058e579182015b8281111561058d578251825591602001919060010190610572565b5b50905061059b919061059f565b5090565b5b808211156105b85760008160009055506001016105a0565b5090565b60006105cf6105ca8461096b565b61093a565b9050828152602081018484840111156105e757600080fd5b6105f28482856109e9565b509392505050565b60008135905061060981610acc565b92915050565b600082601f83011261062057600080fd5b81356106308482602086016105bc565b91505092915050565b60006020828403121561064b57600080fd5b600082013567ffffffffffffffff81111561066557600080fd5b6106718482850161060f565b91505092915050565b6000806000806080858703121561069057600080fd5b600085013567ffffffffffffffff8111156106aa57600080fd5b6106b68782880161060f565b945050602085013567ffffffffffffffff8111156106d357600080fd5b6106df8782880161060f565b93505060406106f0878288016105fa565b9250506060610701878288016105fa565b91505092959194509250565b610716816109d3565b82525050565b610725816109d3565b82525050565b60006107368261099b565b61074081856109a6565b93506107508185602086016109f8565b61075981610abb565b840191505092915050565b600061076f8261099b565b61077981856109b7565b93506107898185602086016109f8565b61079281610abb565b840191505092915050565b60006107a88261099b565b6107b281856109c8565b93506107c28185602086016109f8565b80840191505092915050565b600060a08301600083015184820360008601526107eb828261072b565b91505060208301518482036020860152610805828261072b565b915050604083015161081a604086018261070d565b50606083015161082d606086018261070d565b506080830151610840608086018261084b565b508091505092915050565b610854816109df565b82525050565b610863816109df565b82525050565b6000610875828461079d565b915081905092915050565b6000604082019050818103600083015261089a8185610764565b905081810360208301526108ae8184610764565b90509392505050565b600060a08201905081810360008301526108d18188610764565b905081810360208301526108e58187610764565b90506108f4604083018661071c565b610901606083018561071c565b61090e608083018461085a565b9695505050505050565b6000602082019050818103600083015261093281846107ce565b905092915050565b6000604051905081810181811067ffffffffffffffff8211171561096157610960610a8c565b5b8060405250919050565b600067ffffffffffffffff82111561098657610985610a8c565b5b601f19601f8301169050602081019050919050565b600081519050919050565b600082825260208201905092915050565b600082825260208201905092915050565b600081905092915050565b60008115159050919050565b6000819050919050565b82818337600083830152505050565b60005b83811015610a165780820151818401526020810190506109fb565b83811115610a25576000848401525b50505050565b60006002820490506001821680610a4357607f821691505b60208210811415610a5757610a56610a5d565b5b50919050565b7f4e487b7100000000000000000000000000000000000000000000000000000000600052602260045260246000fd5b7f4e487b7100000000000000000000000000000000000000000000000000000000600052604160045260246000fd5b6000601f19601f8301169050919050565b610ad5816109d3565b8114610ae057600080fd5b5056fea264697066735822122095ef3d1dc17a71abed25d3e2c73c79a42ea145b5f1e2a7828c1acfe4aeb57fbc64736f6c63430008000033",
  "immutableReferences": {},
  "source": "// SPDX-License-Identifier: MIT\r\npragma solidity ^0.8.0;\r\n\r\ncontract Imaging {\r\n    struct ImagingEvidence {\r\n        string fileName;\r\n        string sha256Hash;\r\n        bool imagingDone;\r\n        bool downloaded;\r\n        uint256 timestamp;\r\n    }\r\n\r\n    mapping(string => ImagingEvidence) public imagingEvidences; // key: sha256Hash\r\n\r\n    event ImagingEvidenceAdded(string fileName, string sha256Hash);\r\n\r\n    function addImagingEvidence(\r\n        string memory fileName,\r\n        string memory sha256Hash,\r\n        bool imagingDone,\r\n        bool downloaded\r\n    ) public {\r\n        imagingEvidences[sha256Hash] = ImagingEvidence(\r\n            fileName,\r\n            sha256Hash,\r\n            imagingDone,\r\n            downloaded,\r\n            block.timestamp\r\n        );\r\n        emit ImagingEvidenceAdded(fileName, sha256Hash);\r\n    }\r\n\r\n    function getImagingEvidence(string memory sha256Hash) public view returns (ImagingEvidence memory) {\r\n        return imagingEvidences[sha256Hash];\r\n    }\r\n}",
  "sourcePath": "C:\\Users\\isfcr\\Desktop\\NyayaSetu (blockchain)\\NyayaSetu\\blockchain\\contracts\\Imaging.sol",
  "compiler": {
    "name": "solc",
    "version": "0.8.0+commit.c7dfd78e.Emscripten.clang"
  },
  "schemaVersion": "3.4.16",
  "updatedAt": "2025-08-14T04:39:48.988Z",
  "networkType": "ethereum",
  "devdoc": {
    "kind": "dev",
    "methods": {},
    "version": 1
  },
  "userdoc": {
    "kind": "user",
    "methods": {},
    "version": 1
  }
}