{
  "contractName": "Integrity",
  "abi": [
    {
      "anonymous": false,
      "inputs": [
        {
          "indexed": false,
          "internalType": "string",
          "name": "evidenceId",
          "type": "string"
        },
        {
          "indexed": false,
          "internalType": "string",
          "name": "sha256Hash",
          "type": "string"
        }
      ],
      "name": "IntegrityRecordAdded",
      "type": "event"
    },
    {
      "inputs": [
        {
          "internalType": "string",
          "name": "",
          "type": "string"
        }
      ],
      "name": "integrityRecords",
      "outputs": [
        {
          "internalType": "string",
          "name": "evidenceId",
          "type": "string"
        },
        {
          "internalType": "string",
          "name": "sha256Hash",
          "type": "string"
        },
        {
          "internalType": "string",
          "name": "status",
          "type": "string"
        },
        {
          "internalType": "uint256",
          "name": "timestamp",
          "type": "uint256"
        }
      ],
      "stateMutability": "view",
      "type": "function",
      "constant": true
    },
    {
      "inputs": [
        {
          "internalType": "string",
          "name": "evidenceId",
          "type": "string"
        },
        {
          "internalType": "string",
          "name": "sha256Hash",
          "type": "string"
        },
        {
          "internalType": "string",
          "name": "status",
          "type": "string"
        }
      ],
      "name": "addIntegrityRecord",
      "outputs": [],
      "stateMutability": "nonpayable",
      "type": "function"
    },
    {
      "inputs": [
        {
          "internalType": "string",
          "name": "evidenceId",
          "type": "string"
        }
      ],
      "name": "getIntegrityRecord",
      "outputs": [
        {
          "components": [
            {
              "internalType": "string",
              "name": "evidenceId",
              "type": "string"
            },
            {
              "internalType": "string",
              "name": "sha256Hash",
              "type": "string"
            },
            {
              "internalType": "string",
              "name": "status",
              "type": "string"
            },
            {
              "internalType": "uint256",
              "name": "timestamp",
              "type": "uint256"
            }
          ],
          "internalType": "struct Integrity.IntegrityRecord",
          "name": "",
          "type": "tuple"
        }
      ],
      "stateMutability": "view",
      "type": "function",
      "constant": true
    }
  ],
  "bytecode": "0x608060405234801561001057600080fd5b50610b3f806100206000396000f3fe608060405234801561001057600080fd5b50600436106100415760003560e01c8063548126cd146100465780635d038844146100765780637bdbdabf14610092575b600080fd5b610060600480360381019061005b91906106af565b6100c5565b60405161006d9190610961565b60405180910390f35b610090600480360381019061008b91906106f0565b6102bd565b005b6100ac60048036038101906100a791906106af565b61039e565b6040516100bc9493929190610907565b60405180910390f35b6100cd61057c565b6000826040516100dd91906108b9565b908152602001604051809103902060405180608001604052908160008201805461010690610a68565b80601f016020809104026020016040519081016040528092919081815260200182805461013290610a68565b801561017f5780601f106101545761010080835404028352916020019161017f565b820191906000526020600020905b81548152906001019060200180831161016257829003601f168201915b5050505050815260200160018201805461019890610a68565b80601f01602080910402602001604051908101604052809291908181526020018280546101c490610a68565b80156102115780601f106101e657610100808354040283529160200191610211565b820191906000526020600020905b8154815290600101906020018083116101f457829003601f168201915b5050505050815260200160028201805461022a90610a68565b80601f016020809104026020016040519081016040528092919081815260200182805461025690610a68565b80156102a35780601f10610278576101008083540402835291602001916102a3565b820191906000526020600020905b81548152906001019060200180831161028657829003601f168201915b505050505081526020016003820154815250509050919050565b6040518060800160405280848152602001838152602001828152602001428152506000846040516102ee91906108b9565b908152602001604051809103902060008201518160000190805190602001906103189291906105a4565b5060208201518160010190805190602001906103359291906105a4565b5060408201518160020190805190602001906103529291906105a4565b50606082015181600301559050507f65c89bb682d64c5f2262b79f7a1436a77ae83ef9f0deecb7f47594e2fe029df083836040516103919291906108d0565b60405180910390a1505050565b6000818051602081018201805184825260208301602085012081835280955050505050506000915090508060000180546103d790610a68565b80601f016020809104026020016040519081016040528092919081815260200182805461040390610a68565b80156104505780601f1061042557610100808354040283529160200191610450565b820191906000526020600020905b81548152906001019060200180831161043357829003601f168201915b50505050509080600101805461046590610a68565b80601f016020809104026020016040519081016040528092919081815260200182805461049190610a68565b80156104de5780601f106104b3576101008083540402835291602001916104de565b820191906000526020600020905b8154815290600101906020018083116104c157829003601f168201915b5050505050908060020180546104f390610a68565b80601f016020809104026020016040519081016040528092919081815260200182805461051f90610a68565b801561056c5780601f106105415761010080835404028352916020019161056c565b820191906000526020600020905b81548152906001019060200180831161054f57829003601f168201915b5050505050908060030154905084565b6040518060800160405280606081526020016060815260200160608152602001600081525090565b8280546105b090610a68565b90600052602060002090601f0160209004810192826105d25760008555610619565b82601f106105eb57805160ff1916838001178555610619565b82800160010185558215610619579182015b828111156106185782518255916020019190600101906105fd565b5b509050610626919061062a565b5090565b5b8082111561064357600081600090555060010161062b565b5090565b600061065a610655846109b4565b610983565b90508281526020810184848401111561067257600080fd5b61067d848285610a26565b509392505050565b600082601f83011261069657600080fd5b81356106a6848260208601610647565b91505092915050565b6000602082840312156106c157600080fd5b600082013567ffffffffffffffff8111156106db57600080fd5b6106e784828501610685565b91505092915050565b60008060006060848603121561070557600080fd5b600084013567ffffffffffffffff81111561071f57600080fd5b61072b86828701610685565b935050602084013567ffffffffffffffff81111561074857600080fd5b61075486828701610685565b925050604084013567ffffffffffffffff81111561077157600080fd5b61077d86828701610685565b9150509250925092565b6000610792826109e4565b61079c81856109ef565b93506107ac818560208601610a35565b6107b581610af8565b840191505092915050565b60006107cb826109e4565b6107d58185610a00565b93506107e5818560208601610a35565b6107ee81610af8565b840191505092915050565b6000610804826109e4565b61080e8185610a11565b935061081e818560208601610a35565b80840191505092915050565b600060808301600083015184820360008601526108478282610787565b915050602083015184820360208601526108618282610787565b9150506040830151848203604086015261087b8282610787565b9150506060830151610890606086018261089b565b508091505092915050565b6108a481610a1c565b82525050565b6108b381610a1c565b82525050565b60006108c582846107f9565b915081905092915050565b600060408201905081810360008301526108ea81856107c0565b905081810360208301526108fe81846107c0565b90509392505050565b6000608082019050818103600083015261092181876107c0565b9050818103602083015261093581866107c0565b9050818103604083015261094981856107c0565b905061095860608301846108aa565b95945050505050565b6000602082019050818103600083015261097b818461082a565b905092915050565b6000604051905081810181811067ffffffffffffffff821117156109aa576109a9610ac9565b5b8060405250919050565b600067ffffffffffffffff8211156109cf576109ce610ac9565b5b601f19601f8301169050602081019050919050565b600081519050919050565b600082825260208201905092915050565b600082825260208201905092915050565b600081905092915050565b6000819050919050565b82818337600083830152505050565b60005b83811015610a53578082015181840152602081019050610a38565b83811115610a62576000848401525b50505050565b60006002820490506001821680610a8057607f821691505b60208210811415610a9457610a93610a9a565b5b50919050565b7f4e487b7100000000000000000000000000000000000000000000000000000000600052602260045260246000fd5b7f4e487b7100000000000000000000000000000000000000000000000000000000600052604160045260246000fd5b6000601f19601f830116905091905056fea2646970667358221220f9f517817b2af268d9bbf421a7622999f631e2546632167c1a0cc93d3c9ff53764736f6c63430008000033",
  "immutableReferences": {},
  "source": "// SPDX-License-Identifier: MIT\r\npragma solidity ^0.8.0;\r\n\r\ncontract Integrity {\r\n    struct IntegrityRecord {\r\n        string evidenceId;\r\n        string sha256Hash;\r\n        string status;\r\n        uint256 timestamp;\r\n    }\r\n\r\n    mapping(string => IntegrityRecord) public integrityRecords; // key: evidenceId\r\n\r\n    event IntegrityRecordAdded(string evidenceId, string sha256Hash);\r\n\r\n    function addIntegrityRecord(\r\n        string memory evidenceId,\r\n        string memory sha256Hash,\r\n        string memory status\r\n    ) public {\r\n        integrityRecords[evidenceId] = IntegrityRecord(\r\n            evidenceId,\r\n            sha256Hash,\r\n            status,\r\n            block.timestamp\r\n        );\r\n        emit IntegrityRecordAdded(evidenceId, sha256Hash);\r\n    }\r\n\r\n    function getIntegrityRecord(string memory evidenceId) public view returns (IntegrityRecord memory) {\r\n        return integrityRecords[evidenceId];\r\n    }\r\n}",
  "sourcePath": "C:\\Users\\isfcr\\Desktop\\NyayaSetu (blockchain)\\NyayaSetu\\blockchain\\contracts\\Integrity.sol",
  "compiler": {
    "name": "solc",
    "version": "0.8.0+commit.c7dfd78e.Emscripten.clang"
  },
  "schemaVersion": "3.4.16",
  "updatedAt": "2025-08-14T04:39:49.051Z",
  "networkType": "ethereum",
  "devdoc": {
    "kind": "dev",
    "methods": {},
    "version": 1
  },
  "userdoc": {
    "kind": "user",
    "methods": {},
    "version": 1
  }
}