{
  "contractName": "EvidenceTransfer",
  "abi": [
    {
      "anonymous": false,
      "inputs": [
        {
          "indexed": false,
          "internalType": "string",
          "name": "evidenceId",
          "type": "string"
        },
        {
          "indexed": false,
          "internalType": "string",
          "name": "caseId",
          "type": "string"
        },
        {
          "indexed": true,
          "internalType": "address",
          "name": "transferredBy",
          "type": "address"
        },
        {
          "indexed": false,
          "internalType": "string",
          "name": "transferredTo",
          "type": "string"
        },
        {
          "indexed": false,
          "internalType": "uint256",
          "name": "transferredAt",
          "type": "uint256"
        },
        {
          "indexed": false,
          "internalType": "string",
          "name": "status",
          "type": "string"
        },
        {
          "indexed": false,
          "internalType": "string",
          "name": "remarks",
          "type": "string"
        }
      ],
      "name": "EvidenceTransferred",
      "type": "event"
    },
    {
      "inputs": [
        {
          "internalType": "string",
          "name": "",
          "type": "string"
        },
        {
          "internalType": "uint256",
          "name": "",
          "type": "uint256"
        }
      ],
      "name": "evidenceTransfers",
      "outputs": [
        {
          "internalType": "string",
          "name": "evidenceId",
          "type": "string"
        },
        {
          "internalType": "string",
          "name": "caseId",
          "type": "string"
        },
        {
          "internalType": "address",
          "name": "transferredBy",
          "type": "address"
        },
        {
          "internalType": "string",
          "name": "transferredTo",
          "type": "string"
        },
        {
          "internalType": "uint256",
          "name": "transferredAt",
          "type": "uint256"
        },
        {
          "internalType": "uint256",
          "name": "receivedAt",
          "type": "uint256"
        },
        {
          "internalType": "string",
          "name": "status",
          "type": "string"
        },
        {
          "internalType": "string",
          "name": "remarks",
          "type": "string"
        }
      ],
      "stateMutability": "view",
      "type": "function",
      "constant": true
    },
    {
      "inputs": [
        {
          "internalType": "string",
          "name": "evidenceId",
          "type": "string"
        },
        {
          "internalType": "string",
          "name": "caseId",
          "type": "string"
        },
        {
          "internalType": "string",
          "name": "transferredTo",
          "type": "string"
        },
        {
          "internalType": "string",
          "name": "status",
          "type": "string"
        },
        {
          "internalType": "string",
          "name": "remarks",
          "type": "string"
        }
      ],
      "name": "recordTransfer",
      "outputs": [],
      "stateMutability": "nonpayable",
      "type": "function"
    }
  ],
  "bytecode": "0x608060405234801561001057600080fd5b50610bd7806100206000396000f3fe608060405234801561001057600080fd5b50600436106100365760003560e01c806322c1c9cd1461003b5780635581433014610057575b600080fd5b610055600480360381019061005091906106dc565b61008e565b005b610071600480360381019061006c91906107cb565b610279565b6040516100859897969594939291906108be565b60405180910390f35b60006040518061010001604052808781526020018681526020013373ffffffffffffffffffffffffffffffffffffffff168152602001858152602001428152602001600081526020018481526020018381525090506000866040516100f391906108a7565b908152602001604051809103902081908060018154018082558091505060019003906000526020600020906008020160009091909190915060008201518160000190805190602001906101479291906105bc565b5060208201518160010190805190602001906101649291906105bc565b5060408201518160020160006101000a81548173ffffffffffffffffffffffffffffffffffffffff021916908373ffffffffffffffffffffffffffffffffffffffff16021790555060608201518160030190805190602001906101c89291906105bc565b506080820151816004015560a0820151816005015560c08201518160060190805190602001906101f99291906105bc565b5060e08201518160070190805190602001906102169291906105bc565b5050503373ffffffffffffffffffffffffffffffffffffffff167fb6aef3ed1ca1c514079dbfa18bac957d1f0ab247e14f6e4fb2a2e85d5f02c0c68787874288886040516102699695949392919061095f565b60405180910390a2505050505050565b60008280516020810182018051848252602083016020850120818352809550505050505081815481106102ab57600080fd5b9060005260206000209060080201600091509150508060000180546102cf90610ae9565b80601f01602080910402602001604051908101604052809291908181526020018280546102fb90610ae9565b80156103485780601f1061031d57610100808354040283529160200191610348565b820191906000526020600020905b81548152906001019060200180831161032b57829003601f168201915b50505050509080600101805461035d90610ae9565b80601f016020809104026020016040519081016040528092919081815260200182805461038990610ae9565b80156103d65780601f106103ab576101008083540402835291602001916103d6565b820191906000526020600020905b8154815290600101906020018083116103b957829003601f168201915b5050505050908060020160009054906101000a900473ffffffffffffffffffffffffffffffffffffffff169080600301805461041190610ae9565b80601f016020809104026020016040519081016040528092919081815260200182805461043d90610ae9565b801561048a5780601f1061045f5761010080835404028352916020019161048a565b820191906000526020600020905b81548152906001019060200180831161046d57829003601f168201915b5050505050908060040154908060050154908060060180546104ab90610ae9565b80601f01602080910402602001604051908101604052809291908181526020018280546104d790610ae9565b80156105245780601f106104f957610100808354040283529160200191610524565b820191906000526020600020905b81548152906001019060200180831161050757829003601f168201915b50505050509080600701805461053990610ae9565b80601f016020809104026020016040519081016040528092919081815260200182805461056590610ae9565b80156105b25780601f10610587576101008083540402835291602001916105b2565b820191906000526020600020905b81548152906001019060200180831161059557829003601f168201915b5050505050905088565b8280546105c890610ae9565b90600052602060002090601f0160209004810192826105ea5760008555610631565b82601f1061060357805160ff1916838001178555610631565b82800160010185558215610631579182015b82811115610630578251825591602001919060010190610615565b5b50905061063e9190610642565b5090565b5b8082111561065b576000816000905550600101610643565b5090565b600061067261066d84610a14565b6109e3565b90508281526020810184848401111561068a57600080fd5b610695848285610aa7565b509392505050565b600082601f8301126106ae57600080fd5b81356106be84826020860161065f565b91505092915050565b6000813590506106d681610b8a565b92915050565b600080600080600060a086880312156106f457600080fd5b600086013567ffffffffffffffff81111561070e57600080fd5b61071a8882890161069d565b955050602086013567ffffffffffffffff81111561073757600080fd5b6107438882890161069d565b945050604086013567ffffffffffffffff81111561076057600080fd5b61076c8882890161069d565b935050606086013567ffffffffffffffff81111561078957600080fd5b6107958882890161069d565b925050608086013567ffffffffffffffff8111156107b257600080fd5b6107be8882890161069d565b9150509295509295909350565b600080604083850312156107de57600080fd5b600083013567ffffffffffffffff8111156107f857600080fd5b6108048582860161069d565b9250506020610815858286016106c7565b9150509250929050565b61082881610a6b565b82525050565b600061083982610a44565b6108438185610a4f565b9350610853818560208601610ab6565b61085c81610b79565b840191505092915050565b600061087282610a44565b61087c8185610a60565b935061088c818560208601610ab6565b80840191505092915050565b6108a181610a9d565b82525050565b60006108b38284610867565b915081905092915050565b60006101008201905081810360008301526108d9818b61082e565b905081810360208301526108ed818a61082e565b90506108fc604083018961081f565b818103606083015261090e818861082e565b905061091d6080830187610898565b61092a60a0830186610898565b81810360c083015261093c818561082e565b905081810360e0830152610950818461082e565b90509998505050505050505050565b600060c0820190508181036000830152610979818961082e565b9050818103602083015261098d818861082e565b905081810360408301526109a1818761082e565b90506109b06060830186610898565b81810360808301526109c2818561082e565b905081810360a08301526109d6818461082e565b9050979650505050505050565b6000604051905081810181811067ffffffffffffffff82111715610a0a57610a09610b4a565b5b8060405250919050565b600067ffffffffffffffff821115610a2f57610a2e610b4a565b5b601f19601f8301169050602081019050919050565b600081519050919050565b600082825260208201905092915050565b600081905092915050565b6000610a7682610a7d565b9050919050565b600073ffffffffffffffffffffffffffffffffffffffff82169050919050565b6000819050919050565b82818337600083830152505050565b60005b83811015610ad4578082015181840152602081019050610ab9565b83811115610ae3576000848401525b50505050565b60006002820490506001821680610b0157607f821691505b60208210811415610b1557610b14610b1b565b5b50919050565b7f4e487b7100000000000000000000000000000000000000000000000000000000600052602260045260246000fd5b7f4e487b7100000000000000000000000000000000000000000000000000000000600052604160045260246000fd5b6000601f19601f8301169050919050565b610b9381610a9d565b8114610b9e57600080fd5b5056fea2646970667358221220d6bda43b5d9aec71ef1987e45ecdb46cc2c7149622706284d63a89f53efda39264736f6c63430008000033",
  "immutableReferences": {},
  "source": "// SPDX-License-Identifier: MIT\r\npragma solidity ^0.8.0;\r\n\r\ncontract EvidenceTransfer {\r\n    struct Transfer {\r\n        string evidenceId;           // Changed from uint256 to string\r\n        string caseId;\r\n        address transferredBy;\r\n        string transferredTo;        // Changed from address to string\r\n        uint256 transferredAt;\r\n        uint256 receivedAt;\r\n        string status;\r\n        string remarks;\r\n    }\r\n\r\n    // evidenceId => list of transfers\r\n    mapping(string => Transfer[]) public evidenceTransfers; // Changed key to string\r\n\r\n    event EvidenceTransferred(\r\n        string evidenceId,           // Changed from uint256 to string\r\n        string caseId,\r\n        address indexed transferredBy,\r\n        string transferredTo,        // Changed from address to string\r\n        uint256 transferredAt,\r\n        string status,\r\n        string remarks\r\n    );\r\n\r\n    function recordTransfer(\r\n        string memory evidenceId,    // Changed from uint256 to string\r\n        string memory caseId,\r\n        string memory transferredTo, // Changed from address to string\r\n        string memory status,\r\n        string memory remarks\r\n    ) public {\r\n        Transfer memory newTransfer = Transfer({\r\n            evidenceId: evidenceId,\r\n            caseId: caseId,\r\n            transferredBy: msg.sender,\r\n            transferredTo: transferredTo,\r\n            transferredAt: block.timestamp,\r\n            receivedAt: 0,\r\n            status: status,\r\n            remarks: remarks\r\n        });\r\n\r\n        evidenceTransfers[evidenceId].push(newTransfer);\r\n\r\n        emit EvidenceTransferred(\r\n            evidenceId,\r\n            caseId,\r\n            msg.sender,\r\n            transferredTo,\r\n            block.timestamp,\r\n            status,\r\n            remarks\r\n        );\r\n    }\r\n}",
  "sourcePath": "C:\\Users\\isfcr\\Desktop\\NyayaSetu (blockchain)\\NyayaSetu\\blockchain\\contracts\\TransferEvidence.sol",
  "compiler": {
    "name": "solc",
    "version": "0.8.0+commit.c7dfd78e.Emscripten.clang"
  },
  "schemaVersion": "3.4.16",
  "updatedAt": "2025-08-14T04:39:49.177Z",
  "networkType": "ethereum",
  "devdoc": {
    "kind": "dev",
    "methods": {},
    "version": 1
  },
  "userdoc": {
    "kind": "user",
    "methods": {},
    "version": 1
  }
}