{
  "contractName": "RegisterNewCase",
  "abi": [
    {
      "anonymous": false,
      "inputs": [
        {
          "indexed": false,
          "internalType": "string",
          "name": "caseId",
          "type": "string"
        }
      ],
      "name": "CaseRegistered",
      "type": "event"
    },
    {
      "inputs": [
        {
          "internalType": "string",
          "name": "",
          "type": "string"
        }
      ],
      "name": "cases",
      "outputs": [
        {
          "internalType": "string",
          "name": "caseId",
          "type": "string"
        },
        {
          "internalType": "string",
          "name": "caseName",
          "type": "string"
        },
        {
          "internalType": "string",
          "name": "officer",
          "type": "string"
        },
        {
          "internalType": "string",
          "name": "officerWallet",
          "type": "string"
        },
        {
          "internalType": "string",
          "name": "description",
          "type": "string"
        },
        {
          "internalType": "string",
          "name": "location",
          "type": "string"
        },
        {
          "internalType": "string",
          "name": "status",
          "type": "string"
        }
      ],
      "stateMutability": "view",
      "type": "function",
      "constant": true
    },
    {
      "inputs": [
        {
          "internalType": "string",
          "name": "caseId",
          "type": "string"
        },
        {
          "internalType": "string",
          "name": "caseName",
          "type": "string"
        },
        {
          "internalType": "string",
          "name": "officer",
          "type": "string"
        },
        {
          "internalType": "string",
          "name": "officerWallet",
          "type": "string"
        },
        {
          "internalType": "string",
          "name": "description",
          "type": "string"
        },
        {
          "internalType": "string",
          "name": "location",
          "type": "string"
        },
        {
          "internalType": "string[]",
          "name": "suspects",
          "type": "string[]"
        },
        {
          "internalType": "string[]",
          "name": "victims",
          "type": "string[]"
        },
        {
          "internalType": "string[]",
          "name": "witnesses",
          "type": "string[]"
        },
        {
          "internalType": "string",
          "name": "status",
          "type": "string"
        }
      ],
      "name": "registerNewCase",
      "outputs": [],
      "stateMutability": "nonpayable",
      "type": "function"
    }
  ],
  "bytecode": "0x608060405234801561001057600080fd5b50610ddd806100206000396000f3fe608060405234801561001057600080fd5b50600436106100365760003560e01c80631d845da61461003b578063df96582914610057575b600080fd5b61005560048036038101906100509190610902565b61008d565b005b610071600480360381019061006c91906108c1565b61025b565b6040516100849796959493929190610b70565b60405180910390f35b6040518061014001604052808b81526020018a81526020018981526020018881526020018781526020018681526020018581526020018481526020018381526020018281525060008b6040516100e39190610b37565b9081526020016040518091039020600082015181600001908051906020019061010d92919061066b565b50602082015181600101908051906020019061012a92919061066b565b50604082015181600201908051906020019061014792919061066b565b50606082015181600301908051906020019061016492919061066b565b50608082015181600401908051906020019061018192919061066b565b5060a082015181600501908051906020019061019e92919061066b565b5060c08201518160060190805190602001906101bb9291906106f1565b5060e08201518160070190805190602001906101d89291906106f1565b506101008201518160080190805190602001906101f69291906106f1565b5061012082015181600901908051906020019061021492919061066b565b509050507f0ba2a944b36548e9ddd2d9914d2c27535ae93e1453bcca17378724691b2492808a6040516102479190610b4e565b60405180910390a150505050505050505050565b60008180516020810182018051848252602083016020850120818352809550505050505060009150905080600001805461029490610d06565b80601f01602080910402602001604051908101604052809291908181526020018280546102c090610d06565b801561030d5780601f106102e25761010080835404028352916020019161030d565b820191906000526020600020905b8154815290600101906020018083116102f057829003601f168201915b50505050509080600101805461032290610d06565b80601f016020809104026020016040519081016040528092919081815260200182805461034e90610d06565b801561039b5780601f106103705761010080835404028352916020019161039b565b820191906000526020600020905b81548152906001019060200180831161037e57829003601f168201915b5050505050908060020180546103b090610d06565b80601f01602080910402602001604051908101604052809291908181526020018280546103dc90610d06565b80156104295780601f106103fe57610100808354040283529160200191610429565b820191906000526020600020905b81548152906001019060200180831161040c57829003601f168201915b50505050509080600301805461043e90610d06565b80601f016020809104026020016040519081016040528092919081815260200182805461046a90610d06565b80156104b75780601f1061048c576101008083540402835291602001916104b7565b820191906000526020600020905b81548152906001019060200180831161049a57829003601f168201915b5050505050908060040180546104cc90610d06565b80601f01602080910402602001604051908101604052809291908181526020018280546104f890610d06565b80156105455780601f1061051a57610100808354040283529160200191610545565b820191906000526020600020905b81548152906001019060200180831161052857829003601f168201915b50505050509080600501805461055a90610d06565b80601f016020809104026020016040519081016040528092919081815260200182805461058690610d06565b80156105d35780601f106105a8576101008083540402835291602001916105d3565b820191906000526020600020905b8154815290600101906020018083116105b657829003601f168201915b5050505050908060090180546105e890610d06565b80601f016020809104026020016040519081016040528092919081815260200182805461061490610d06565b80156106615780601f1061063657610100808354040283529160200191610661565b820191906000526020600020905b81548152906001019060200180831161064457829003601f168201915b5050505050905087565b82805461067790610d06565b90600052602060002090601f01602090048101928261069957600085556106e0565b82601f106106b257805160ff19168380011785556106e0565b828001600101855582156106e0579182015b828111156106df5782518255916020019190600101906106c4565b5b5090506106ed9190610751565b5090565b828054828255906000526020600020908101928215610740579160200282015b8281111561073f57825182908051906020019061072f92919061066b565b5091602001919060010190610711565b5b50905061074d919061076e565b5090565b5b8082111561076a576000816000905550600101610752565b5090565b5b8082111561078e57600081816107859190610792565b5060010161076f565b5090565b50805461079e90610d06565b6000825580601f106107b057506107cf565b601f0160209004906000526020600020908101906107ce9190610751565b5b50565b60006107e56107e084610c41565b610c10565b9050808382526020820190508260005b85811015610825578135850161080b8882610897565b8452602084019350602083019250506001810190506107f5565b5050509392505050565b600061084261083d84610c6d565b610c10565b90508281526020810184848401111561085a57600080fd5b610865848285610cc4565b509392505050565b600082601f83011261087e57600080fd5b813561088e8482602086016107d2565b91505092915050565b600082601f8301126108a857600080fd5b81356108b884826020860161082f565b91505092915050565b6000602082840312156108d357600080fd5b600082013567ffffffffffffffff8111156108ed57600080fd5b6108f984828501610897565b91505092915050565b6000806000806000806000806000806101408b8d03121561092257600080fd5b60008b013567ffffffffffffffff81111561093c57600080fd5b6109488d828e01610897565b9a505060208b013567ffffffffffffffff81111561096557600080fd5b6109718d828e01610897565b99505060408b013567ffffffffffffffff81111561098e57600080fd5b61099a8d828e01610897565b98505060608b013567ffffffffffffffff8111156109b757600080fd5b6109c38d828e01610897565b97505060808b013567ffffffffffffffff8111156109e057600080fd5b6109ec8d828e01610897565b96505060a08b013567ffffffffffffffff811115610a0957600080fd5b610a158d828e01610897565b95505060c08b013567ffffffffffffffff811115610a3257600080fd5b610a3e8d828e0161086d565b94505060e08b013567ffffffffffffffff811115610a5b57600080fd5b610a678d828e0161086d565b9350506101008b013567ffffffffffffffff811115610a8557600080fd5b610a918d828e0161086d565b9250506101208b013567ffffffffffffffff811115610aaf57600080fd5b610abb8d828e01610897565b9150509295989b9194979a5092959850565b6000610ad882610c9d565b610ae28185610ca8565b9350610af2818560208601610cd3565b610afb81610d96565b840191505092915050565b6000610b1182610c9d565b610b1b8185610cb9565b9350610b2b818560208601610cd3565b80840191505092915050565b6000610b438284610b06565b915081905092915050565b60006020820190508181036000830152610b688184610acd565b905092915050565b600060e0820190508181036000830152610b8a818a610acd565b90508181036020830152610b9e8189610acd565b90508181036040830152610bb28188610acd565b90508181036060830152610bc68187610acd565b90508181036080830152610bda8186610acd565b905081810360a0830152610bee8185610acd565b905081810360c0830152610c028184610acd565b905098975050505050505050565b6000604051905081810181811067ffffffffffffffff82111715610c3757610c36610d67565b5b8060405250919050565b600067ffffffffffffffff821115610c5c57610c5b610d67565b5b602082029050602081019050919050565b600067ffffffffffffffff821115610c8857610c87610d67565b5b601f19601f8301169050602081019050919050565b600081519050919050565b600082825260208201905092915050565b600081905092915050565b82818337600083830152505050565b60005b83811015610cf1578082015181840152602081019050610cd6565b83811115610d00576000848401525b50505050565b60006002820490506001821680610d1e57607f821691505b60208210811415610d3257610d31610d38565b5b50919050565b7f4e487b7100000000000000000000000000000000000000000000000000000000600052602260045260246000fd5b7f4e487b7100000000000000000000000000000000000000000000000000000000600052604160045260246000fd5b6000601f19601f830116905091905056fea2646970667358221220033e7ae862304b70b78e8c4157542bad10836febc47e90c557e34232e4772a2464736f6c63430008000033",
  "immutableReferences": {},
  "source": "// SPDX-License-Identifier: MIT\r\npragma solidity ^0.8.0;\r\n\r\ncontract RegisterNewCase {\r\n    struct Case {\r\n        string caseId;\r\n        string caseName;\r\n        string officer;\r\n        string officerWallet;\r\n        string description;\r\n        string location;\r\n        string[] suspects;\r\n        string[] victims;\r\n        string[] witnesses;\r\n        string status;\r\n    }\r\n\r\n    mapping(string => Case) public cases;\r\n\r\n    event CaseRegistered(string caseId);\r\n\r\n    function registerNewCase(\r\n        string memory caseId,\r\n        string memory caseName,\r\n        string memory officer,\r\n        string memory officerWallet,\r\n        string memory description,\r\n        string memory location,\r\n        string[] memory suspects,\r\n        string[] memory victims,\r\n        string[] memory witnesses,\r\n        string memory status\r\n    ) public {\r\n        cases[caseId] = Case(\r\n            caseId,\r\n            caseName,\r\n            officer,\r\n            officerWallet,\r\n            description,\r\n            location,\r\n            suspects,\r\n            victims,\r\n            witnesses,\r\n            status\r\n        );\r\n        emit CaseRegistered(caseId);\r\n    }\r\n}",
  "sourcePath": "C:\\Users\\isfcr\\Desktop\\NyayaSetu (blockchain)\\NyayaSetu\\blockchain\\contracts\\RegisterNewCase.sol",
  "compiler": {
    "name": "solc",
    "version": "0.8.0+commit.c7dfd78e.Emscripten.clang"
  },
  "schemaVersion": "3.4.16",
  "updatedAt": "2025-08-14T04:39:48.731Z",
  "networkType": "ethereum",
  "devdoc": {
    "kind": "dev",
    "methods": {},
    "version": 1
  },
  "userdoc": {
    "kind": "user",
    "methods": {},
    "version": 1
  }
}