{
  "contractName": "ReportSummary",
  "abi": [
    {
      "anonymous": false,
      "inputs": [
        {
          "indexed": false,
          "internalType": "string",
          "name": "caseId",
          "type": "string"
        },
        {
          "indexed": false,
          "internalType": "string",
          "name": "summary",
          "type": "string"
        }
      ],
      "name": "SummaryStored",
      "type": "event"
    },
    {
      "inputs": [
        {
          "internalType": "string",
          "name": "caseId",
          "type": "string"
        },
        {
          "internalType": "string",
          "name": "summary",
          "type": "string"
        }
      ],
      "name": "storeSummary",
      "outputs": [],
      "stateMutability": "nonpayable",
      "type": "function"
    },
    {
      "inputs": [
        {
          "internalType": "string",
          "name": "caseId",
          "type": "string"
        }
      ],
      "name": "getSummary",
      "outputs": [
        {
          "internalType": "string",
          "name": "",
          "type": "string"
        }
      ],
      "stateMutability": "view",
      "type": "function",
      "constant": true
    }
  ],
  "bytecode": "0x608060405234801561001057600080fd5b506105da806100206000396000f3fe608060405234801561001057600080fd5b50600436106100365760003560e01c80630aa1f4af1461003b578063e4aa80ef1461006b575b600080fd5b610055600480360381019061005091906102b2565b610087565b60405161006291906103e0565b60405180910390f35b610085600480360381019061008091906102f3565b610137565b005b606060008260405161009991906103c9565b908152602001604051809103902080546100b290610503565b80601f01602080910402602001604051908101604052809291908181526020018280546100de90610503565b801561012b5780601f106101005761010080835404028352916020019161012b565b820191906000526020600020905b81548152906001019060200180831161010e57829003601f168201915b50505050509050919050565b8060008360405161014891906103c9565b908152602001604051809103902090805190602001906101699291906101a7565b507fead589696a324fcac978ee494655c28e11055508fde9432ad2f44f5631c8d52a828260405161019b929190610402565b60405180910390a15050565b8280546101b390610503565b90600052602060002090601f0160209004810192826101d5576000855561021c565b82601f106101ee57805160ff191683800117855561021c565b8280016001018555821561021c579182015b8281111561021b578251825591602001919060010190610200565b5b509050610229919061022d565b5090565b5b8082111561024657600081600090555060010161022e565b5090565b600061025d6102588461046a565b610439565b90508281526020810184848401111561027557600080fd5b6102808482856104c1565b509392505050565b600082601f83011261029957600080fd5b81356102a984826020860161024a565b91505092915050565b6000602082840312156102c457600080fd5b600082013567ffffffffffffffff8111156102de57600080fd5b6102ea84828501610288565b91505092915050565b6000806040838503121561030657600080fd5b600083013567ffffffffffffffff81111561032057600080fd5b61032c85828601610288565b925050602083013567ffffffffffffffff81111561034957600080fd5b61035585828601610288565b9150509250929050565b600061036a8261049a565b61037481856104a5565b93506103848185602086016104d0565b61038d81610593565b840191505092915050565b60006103a38261049a565b6103ad81856104b6565b93506103bd8185602086016104d0565b80840191505092915050565b60006103d58284610398565b915081905092915050565b600060208201905081810360008301526103fa818461035f565b905092915050565b6000604082019050818103600083015261041c818561035f565b90508181036020830152610430818461035f565b90509392505050565b6000604051905081810181811067ffffffffffffffff821117156104605761045f610564565b5b8060405250919050565b600067ffffffffffffffff82111561048557610484610564565b5b601f19601f8301169050602081019050919050565b600081519050919050565b600082825260208201905092915050565b600081905092915050565b82818337600083830152505050565b60005b838110156104ee5780820151818401526020810190506104d3565b838111156104fd576000848401525b50505050565b6000600282049050600182168061051b57607f821691505b6020821081141561052f5761052e610535565b5b50919050565b7f4e487b7100000000000000000000000000000000000000000000000000000000600052602260045260246000fd5b7f4e487b7100000000000000000000000000000000000000000000000000000000600052604160045260246000fd5b6000601f19601f830116905091905056fea26469706673582212202b6af04664348fb6997c1dab0a69f7186f739e938c9347b1b3ffd9ec8f1409c364736f6c63430008000033",
  "immutableReferences": {},
  "source": "// SPDX-License-Identifier: MIT\r\npragma solidity ^0.8.0;\r\n\r\ncontract ReportSummary {\r\n    mapping(string => string) private summaries;\r\n\r\n    event SummaryStored(string caseId, string summary);\r\n\r\n    function storeSummary(string memory caseId, string memory summary) public {\r\n        summaries[caseId] = summary;\r\n        emit SummaryStored(caseId, summary);\r\n    }\r\n\r\n    function getSummary(string memory caseId) public view returns (string memory) {\r\n        return summaries[caseId];\r\n    }\r\n}",
  "sourcePath": "C:\\Users\\isfcr\\Desktop\\NyayaSetu (blockchain)\\NyayaSetu\\blockchain\\contracts\\Report.sol",
  "compiler": {
    "name": "solc",
    "version": "0.8.0+commit.c7dfd78e.Emscripten.clang"
  },
  "schemaVersion": "3.4.16",
  "updatedAt": "2025-08-14T04:39:49.240Z",
  "networkType": "ethereum",
  "devdoc": {
    "kind": "dev",
    "methods": {},
    "version": 1
  },
  "userdoc": {
    "kind": "user",
    "methods": {},
    "version": 1
  }
}